:100000000C9434000C9451000C9451000C94510049
:100010000C949A000C94F1000C9451000C949000F4
:100020000C9451000C9451000C9451000C947E00DF
:100030000C9451000C9451000C9453000C945100FA
:100040000C9451000C9451000C9482010C945100BA
:100050000C9451000C9451000C9451000C945100DC
:100060000C9451000C94510011241FBECFEFD8E026
:10007000DEBFCDBF11E0A0E0B1E0EEE4F3E102C0ED
:1000800005900D92A036B107D9F721E0A0E6B1E0C6
:1000900001C01D92A038B207E1F70E948E030C94B4
:1000A000A5090C9400001F920F920FB60F92112415
:1000B0002F938F939F9388B190E2892788B980917D
:1000C0007C0190917D01019690937D0180937C014C
:1000D00080917C0190917D018032934039F485B507
:1000E000887F85BD10927D0110927C019F918F9138
:1000F0002F910F900FBE0F901F9018951F920F9287
:100100000FB60F9211248F939F9385B190E18927A9
:1001100085B99F918F910F900FBE0F901F901895EA
:100120001F920F920FB60F9211240F900FBE0F90D7
:100130001F9018951F920F920FB60F9211248F9354
:1001400086B181FD08C0109271018F910F900FBE92
:100150000F901F90189582FDF8CF81E08093710178
:10016000F4CFE0EBF0E08081836080838081806861
:100170008083E0E7F0E080818260808389E1809382
:10018000B300E1EBF0E08081876080830895A0E810
:10019000B0E08C9183608C93E1E8F0E0808188612D
:1001A00080838C9180628C93AFE6B0E08C9182600A
:1001B0008C9382E19AE790938900809388008081F4
:1001C00084608083089584B5826084BDEEE6F0E0AB
:1001D0008081826080838EE487BD85B5846085BD23
:1001E00008951F920F920FB60F9211248F939F9331
:1001F00089B182FF14C091E090937E0183FF12C009
:1002000081E08093620180916501811116C0809127
:100210007E01882351F081E080936E0134C01092FA
:100220007E01ECCF10926201EECF809162018823B3
:1002300099F182E080936E010AC08091650181305E
:1002400091F480917E01811108C010926E0180911D
:1002500000019091010101971BC0809162018823E8
:10026000D9F083E0D9CF809165018230B1F58091DA
:100270007E01882311F083E0DDCF8091620181113E
:100280000BC010926E0180910001909101010196C6
:10029000909301018093000190916E01809165011E
:1002A0009817A1F081E08093600180916E018093A6
:1002B000650180910001909101018B359105CCF091
:1002C0008AE590E090930101809300019F918F91C6
:1002D0000F900FBE0F901F90189580917E01811195
:1002E00002C082E099CF809162018111D5CF81E077
:1002F000A1CF8091000190910101C2973CF782E368
:1003000090E0E0CF1F920F920FB60F9211248F93BF
:100310009F93EF93FF938091C600E09173010E2E9F
:10032000000CFF0BEA58FE4F8083E09173010E2E04
:10033000000CFF0BEA58FE4F8081803419F481E0F5
:1003400080937201809173018F5F80937301E091BC
:1003500073010E2E000CFF0BEB58FE4F80818B3289
:1003600051F0E09173010E2E000CFF0BEB58FE4F85
:1003700080818D32B9F4E09173010E2E000CFF0BD9
:10038000EC58FE4F8081803469F010927301109216
:100390007201FF91EF919F918F910F900FBE0F907F
:1003A0001F901895809173018330C4F08091730180
:1003B0008530A4F4E09173010E2E000CFF0BEB5876
:1003C000FE4F808180330CF3E09173010E2E000C00
:1003D000FF0BEB58FE4F80818B33BCF6809173018D
:1003E0008530B9F6E09173010E2E000CFF0BEB582F
:1003F000FE4F8081833269F681E080937F01809196
:100400007801082E000C990BC0979093640180939B
:10041000630180917901082E000C990BC09790938D
:10042000700180936F01B5CF3B9A8FE599E00197FA
:10043000F1F700C000003B988BE091E00197F1F7E5
:1004400000C0000033990AC0339BFECF87EC90E0D8
:100450000197F1F700C0000081E0089580E0089561
:100460003B9A8AE08A95F1F700C03B988FEE90E0C6
:100470000197F1F700C0000008953B9A8FEE90E0DD
:100480000197F1F700C000003B989AE09A95F1F7C8
:1004900000C00895CF93DF93D82FC8E0D0FF08C0E5
:1004A0000E943002D695C150C9F7DF91CF910895CF
:1004B0000E943D02F7CF0E941402882331F08CEC99
:1004C0000E944A0284E40C944A0208953B9A8AE00E
:1004D0008A95F1F700C03B98E5E3EA95F1F7000053
:1004E00086B1E7ECF0E03197F1F700C000008870CA
:1004F00008951F93CF93DF93D8E011E0C0E00E94EE
:1005000066028111C12B110FD150C9F78C2FDF91D9
:10051000CF911F910895EF92FF920F931F93CF9366
:10052000DF93CDB7DEB729970FB6F894DEBF0FBEC5
:10053000CDBF3B9843980E94140281110EC080E009
:1005400029960FB6F894DEBF0FBECDBFDF91CF91D5
:100550001F910F91FF90EF9008958CEC0E944A023A
:100560008EEB0E944A028E010F5F1F4F7E012AE030
:10057000E20EF11C0E947902F80181938F01EE15C1
:10058000FF05C1F70E9414028823C9F28CEC0E9477
:100590004A028EE40E944A028B810E944A028C81A8
:1005A0000E944A028FE70E944A028FE891E0019779
:1005B000F1F700C000000E941402882309F4BFCFA5
:1005C0008CEC0E944A0288E40E944A029FEFE9EF05
:1005D000F0E09150E040F040E1F700C0000081E021
:1005E000AFCFCF93DF93EC010E946602882301F125
:1005F0000E9414028823D1F08CEC0E944A028EEBF8
:100600000E944A020E94790288830E9479028983AB
:100610000E9479020E9479020E9479020E94790266
:100620000E9479020E9479020E94790281E001C051
:1006300080E0DF91CF9108959BB19F709BB99BB1F2
:10064000807F892B8BB9299A29980895CF93C82F39
:1006500028980E941C038C2F8295807F0E941C0387
:100660008FE39FE10197F1F700C00000CF9108955B
:10067000811104C080E8860F0C94260380ECFBCF28
:100680008AB1806F8AB984B1836084B98FE59AEEAC
:100690000197F1F700C0000080E30E941C038FE186
:1006A0009EE40197F1F700C0000080E30E941C0364
:1006B0008FED91E00197F1F700C0000080E30E9408
:1006C0001C0380E20E941C038FE39FE10197F1F776
:1006D00000C0000088E20E9426038FE00C942603ED
:1006E000CF93C82F289A0E941C038C2F8295807F5D
:1006F0000E941C038FE39FE10197F1F700C0000007
:10070000CF910895CF93DF93EC018991811103C0BC
:10071000DF91CF9108950E947003F7CFCF93DF93BD
:1007200000D000D000D01F92CDB7DEB78AB1837F52
:100730008AB984B1886384B93D9A549A87B1897F14
:1007400087B93C9A8BB18C608BB95C9885B18F7CF2
:1007500085B988B1866088B98BB183608BB987E62B
:1007600090E09093C5008093C4008091C100886997
:100770008093C10086E08093C2000E9440030E94E3
:100780008B02811108C060E00E94380382E091E092
:100790000E948203FFCF0E94E3000E94C7000E94D4
:1007A000B1008091680084608093680080916D0042
:1007B0008C6080936D0080916800826080936800F7
:1007C00080916C00866080936C0081E00E9426031B
:1007D00060E080E00E94380381E191E00E948203A2
:1007E00060E081E00E9438038EE191E00E94820384
:1007F0002FEF4FE087E2215040408040E1F700C0FA
:1008000000009FEF2FE047E2915020404040E1F789
:1008100000C0000081E00E942603809162018111E6
:10082000A9C180917E018111A5C1109265018091BD
:10083000650180936E0184E690E00E94540990E087
:10084000909301018093000180910001909101013A
:100850008B35910534F48091000190910101C2978C
:1008600034F486E490E09093010180930001789441
:100870000E945B0210927D0110927C011092720125
:1008800010927F011092710110E000E0512C7AE08B
:10089000C72ED12CE4EC6E2E77247A94F2E4AF2E9E
:1008A000F1E0BF2ECE0101967C01AAE38A2EA1E0E1
:1008B0009A2E4BE2342E53E2252E65E0462E6AE056
:1008C00081E00E9438038091710181116BC18CE23B
:1008D00091E00E948203CE0106960E94F1028823D5
:1008E00009F4C0C08F8190E09093750180937401EA
:1008F0008091740190917501982F882790937501CC
:100900008093740180917401909175012E81822BE6
:100910009093750180937401209174013091750159
:1009200049E0429FC001439F900D112490937501AF
:1009300080937401809174019091750197FD0796E1
:1009400023E0959587952A95E1F79093750180931B
:1009500074018091740190917501805C9E4F909319
:100960007501809374018091740190917501B601B5
:100970000E947E06909367018093660180917401C6
:1009800090917501B6010E947E0670937501609387
:100990007401209174013091750147E1429FC001BB
:1009A000439F900D1124B3010E947E066E5C7F4F21
:1009B0006093B30080E48093680130926901809174
:1009C000740190917501B6010E947E06605D60938E
:1009D0006A018091740190917501B6010E947E06B2
:1009E000805D80936B0120926C0190E080E020910B
:1009F000C00025FFFCCFFC01E859FE4F2081209369
:100A0000C60001968530910591F760E080E00E9474
:100A100038038DE491E00E9482038091710181117D
:100A2000C9C060E00E9438032091660130916701DF
:100A300080917401909175013F932F939F938F93B1
:100A40009F928F921F924F92FF92EF920E94A60662
:100A5000C7010E9482030FB6F894DEBF0FBECDBF60
:100A60000E945B0280916001882309F428CF1092D4
:100A7000600160E081E00E94380387E491E00E9419
:100A80008203809171018111D5C020917401309150
:100A900075018091000190910101281739070CF42C
:100AA000FBC02091740130917501809100019091FB
:100AB00001012817390739F4809166019091670187
:100AC000892B09F0ECC080917401909175012091FF
:100AD000000130910101821B930B03970CF4DFC0DE
:100AE0008091740190917501209100013091010174
:100AF000821B930B04970CF0D5C06091000170919C
:100B0000010184E690E00E945C096EE080E00E94B2
:100B1000380380910001909101019F938F938FE39F
:100B200091E09F938F931F9283E08F93FF92EF92B8
:100B30000E94A606C7010E94820360E081E00E9435
:100B400038030FB6F894DEBF0FBECDBF01151105F7
:100B500009F0ABC082E591E00E9482032D9A80915A
:100B60008100887F8093810085B5887F85BD2C9822
:100B7000512C9FCE80916201811108C080917E012D
:100B8000882321F081E08093650151CE809162013C
:100B9000882331F080917E01811102C082E0F3CF81
:100BA00083E0F1CF80917101882309F494CE83E32F
:100BB00091E08FCE80917101882309F451CF80910B
:100BC0007F01882309F44CCF60E080E00E94380365
:100BD00080917801082E000C990B9093640180930A
:100BE000630180917901082E000C990B90936401A8
:100BF0008093630120916F013091700180916301B6
:100C0000909164013F932F939F938F93BF92AF92E4
:100C10001F924F92FF92EF920E94A60610927F01C0
:100C2000C7010E94820362E080E00E9438038FE4E3
:100C300091E00FCF80917101882309F45ECF20915C
:100C400063013091640180910001909101012817A6
:100C5000390714F120916301309164018091000102
:100C6000909101012817390731F480916F0190911B
:100C70007001892BA1F4809163019091640120910E
:100C8000000130910101821B930B039744F0809186
:100C900063019091640128CF10E000E02ECF01E0C5
:100CA00010E02BCF02E010E028CF0130110589F4CD
:100CB00087E591E00E94820385B5887F85BD2D98E8
:100CC0002C9A8091810084608093810055245394F4
:100CD000F0CD8CE591E00E9482032D982C9A8091B2
:100CE0008100887F8093810092E0591609F4E1CD5C
:100CF00085B5846085BD82E0582EDBCD97FB072E3D
:100D000016F4009407D077FD09D00E94920607FCE4
:100D100005D03EF4909581959F4F0895709561950B
:100D20007F4F0895AA1BBB1B51E107C0AA1FBB1F21
:100D3000A617B70710F0A61BB70B881F991F5A9567
:100D4000A9F780959095BC01CD010895AEE0B0E083
:100D5000ECEAF6E00C947C090D891E898F89988D48
:100D600026E02C831A83098397FF02C080E090E875
:100D700001979E838D83AE01455E5F4F698D7A8DAD
:100D8000CE0101960E94D6064D815E8157FD0AC0B4
:100D90002F813885421753070CF49A01020F131F55
:100DA000F80110822E96E4E00C949809ABE0B0E0D4
:100DB000ECEDF6E00C946E097C013B018A01FC012C
:100DC00017821682838181FFC8C1CE0101965C0122
:100DD000F7019381F30193FD859193FF81913F0189
:100DE000882309F453C1853239F493FD859193FF2B
:100DF00081913F01853229F4B70190E00E94C60835
:100E0000E7CF912C212C312CFFE1F31538F08B32F8
:100E100011F190F4803209F1833229F137FC3CC0A2
:100E200020ED280F2A3050F536FE20C08AE0989E2B
:100E3000200D1124922E06C08D3291F0803371F76F
:100E4000689430F8F30193FD859193FF81913F0100
:100E50008111DACF21C0689431F8689432F8F2CF6A
:100E6000689433F8EFCF689434F8ECCFEAE02E9E24
:100E7000200D1124222E689435F8E4CF8E3229F407
:100E800036FC04C1689436F8DDCF8C3619F46894CA
:100E900037F8D8CF8836B1F2982F9F7D955493308C
:100EA000E0F08336A1F18337C1F1833509F063C0E7
:100EB0002801F2E04F0E511CF801C080D180692D4D
:100EC00070E036FC02C06FEF7FEFC6010E94B008F1
:100ED0004C01689437F882010AC00C5F1F4FFFE392
:100EE000F98388248394912C6501E89437F833FEC4
:100EF0002DC0522C8114910471F5552009F468CF4E
:100F0000B70180E290E00E94C6085A94F6CFF8013B
:100F1000808189830E5F1F4FE4CF2801F2E04F0EDE
:100F2000511CF801C080D180692D70E036FC02C0F0
:100F30006FEF7FEFC6010E94BB084C018201D5CF45
:100F4000B70180E290E00E94C6082A942814190490
:100F500009F0B0F7CECFF60137FC859137FE8191CD
:100F60006F01B70190E00E94C60851105A94F1E059
:100F70008F1A9108BFCF843619F0893609F077C0EF
:100F8000F80137FE6BC060817181828193810C5FB3
:100F90001F4FF32DFF763F2E97FF09C09095809548
:100FA000709561957F4F8F4F9F4F689437F82AE077
:100FB00030E0A5010E94F608C82ECA188C2C432CDC
:100FC00036FE0CC0E89440F8C91440F434FE05C065
:100FD00032FC03C0F32DFE7E4F2E892C44FE95C0BB
:100FE000FE01EC0DF11D8081803309F087C0242DB6
:100FF000297E422E842D8870582E43FC95C040FED9
:101000008FC09C2C821418F42C0C922C981844FE3F
:1010100091C0B70180E390E00E94C60842FE09C07B
:1010200088E790E041FE02C088E590E0B7010E94A9
:10103000C608C91408F48AC0CA94D12C9FEFC91AF3
:10104000D90ACA0CDB1CF60182916F01B70190E04E
:101050000E94C608AC14BD04B1F74FCF6081718106
:10106000072E000C880B990B0E5F1F4F92CFD32CCD
:10107000E894D4F82AE030E0853739F1232D297F30
:10108000D22E8F3601F148F48835A9F0F701868118
:1010900097812B96E2E10C948A09803749F08837D2
:1010A000A9F7D4FE02C06894D2F820E130E00DC068
:1010B0006894D4F8F6CF34FE03C0822F8660D82E11
:1010C00020E132E002C028E030E0F801D7FE0FC096
:1010D00060817181828193810C5F1F4FA5010E9405
:1010E000F608C82ECA183D2CE89437F867CF6081FF
:1010F000718190E080E00E5F1F4FF0CF42FC02C094
:10110000839478CF8394839475CF842D867809F463
:1011100071CFF6CFB70180E290E00E94C6088394B9
:101120008214C0F3512C73CF522C5818821408F437
:101130006ECFF8CF842D867809F47BCF8BE241FE09
:1011400080E247FC8DE2B70190E071CFB70180E308
:1011500090E00E94C6089A946CCF8FEF9FEF99CFD2
:10116000FC010590615070400110D8F78095909572
:101170008E0F9F1F0895FC01615070400190011077
:10118000D8F7809590958E0F9F1F08950F931F930A
:10119000CF93DF93182F092FEB018B8181FD09C0BD
:1011A0001FEF0FEF812F902FDF91CF911F910F91A4
:1011B000089582FF14C02E813F818C819D81281764
:1011C00039073CF4E881F981CF010196998388833E
:1011D00010838E819F8101969F838E83E3CFE88564
:1011E000F985812F0995892BA1F3DACFFA01AA2776
:1011F000283051F1203181F1E8946F936E7F6E5F5A
:101200007F4F8F4F9F4FAF4FB1E03ED0B4E03CD007
:10121000670F781F891F9A1FA11D680F791F8A1FEA
:10122000911DA11D6A0F711D811D911DA11D20D051
:1012300009F468943F912AE0269F11243019305D0B
:101240003193DEF6CF010895462F4770405D4193FC
:10125000B3E00FD0C9F7F6CF462F4F70405D4A3349
:1012600018F0495D31FD4052419302D0A9F7EACF11
:10127000B4E0A6959795879577956795BA95C9F740
:1012800000976105710508959B01AC010A2E069433
:101290005795479537952795BA95C9F7620F731FEC
:1012A000841F951FA01D0895F999FECF92BD81BDA1
:1012B000F89A992780B50895262FF999FECF92BD07
:1012C00081BDF89A019700B4021639F01FBA20BD0B
:1012D0000FB6F894FA9AF99A0FBE08952F923F929A
:1012E0004F925F926F927F928F929F92AF92BF9236
:1012F000CF92DF92EF92FF920F931F93CF93DF93E2
:10130000CDB7DEB7CA1BDB0B0FB6F894DEBF0FBE3E
:10131000CDBF09942A88398848885F846E847D848B
:101320008C849B84AA84B984C884DF80EE80FD808D
:101330000C811B81AA81B981CE0FD11D0FB6F89403
:0E134000DEBF0FBECDBFED010895F894FFCFC4
:10134E00460053656E736F72206D697373696E67B5
:10135E00004D69746368656C6C204C696E00454580
:10136E003130392050726F6A656374004C6F63615F
:10137E006C200052656D6F746500253032642E2529
:10138E0064002564256400202020202020202020B9
:10139E002000434F4F4C005741524D00484F5400D0
:00000001FF
