:100000000C9434000C9451000C9451000C94510049
:100010000C9451000C9451000C9451000C9451001C
:100020000C9451000C9451000C9451000C9451000C
:100030000C9451000C9451000C9451000C945100FC
:100040000C9451000C9451000C9451000C945100EC
:100050000C9451000C9451000C9451000C945100DC
:100060000C9451000C94510011241FBECFEFD8E026
:10007000DEBFCDBF11E0A0E0B1E0E8E5FBE002C0EB
:1000800005900D92A834B107D9F721E0A8E4B1E0BA
:1000900001C01D92AC35B207E1F70E94ED010C944E
:1000A000AA050C9400009BB19F709BB99BB1807F07
:1000B000892B8BB9299A299A29980895CF93C82F0B
:1000C00028980E9453008C2F8295807F0E945300B5
:1000D0008FE39FE10197F1F700C00000CF910895F1
:1000E000811104C080E8860F0C945E0080ECFBCF89
:1000F0008AB1806F8AB984B1836084B98FE59AEE42
:100100000197F1F700C0000080E30E9453008FE1E7
:100110009EE40197F1F700C0000080E30E945300C5
:100120008FED91E00197F1F700C0000080E30E949D
:10013000530080E20E9453008FE39FE10197F1F7A3
:1001400000C0000088E20E945E008FE00C945E0018
:10015000CF93C82F289A0E9453008C2F8295807FBE
:100160000E9453008FE39FE10197F1F700C0000068
:10017000CF910895CF93DF93EC018991811103C052
:10018000DF91CF9108950E94A800F7CF98E03B9AA5
:1001900080FF0FC02AE02A95F1F700C03B98EFEEF0
:1001A000F0E03197F1F700C000008695915079F7A3
:1001B0000895EFEEF0E03197F1F700C000003B98B2
:1001C000FAE0FA95F1F700C0F0CF3B9A8AE08A9501
:1001D000F1F700C03B98E5E3EA95F1F7000086B13E
:1001E000E7ECF0E03197F1F700C000008870089567
:1001F0001F93CF93DF93D8E011E0C0E00E94E500A9
:100200008111C12B110FD150C9F78C2FDF91CF91E4
:100210001F9108953B9A8FE599E00197F1F700C08F
:1002200000003B988BE091E00197F1F700C00000DF
:1002300033990AC0339BFECF87EC90E00197F1F72A
:1002400000C0000081E0089580E00895EF92FF92E1
:100250000F931F93CF93DF93CDB7DEB729970FB6D8
:10026000F894DEBF0FBECDBF3B9843982FEF81EED1
:1002700094E0215080409040E1F700C000003399A5
:100280000EC080E029960FB6F894DEBF0FBECDBF3A
:10029000DF91CF911F910F91FF90EF9008953C9ABD
:1002A0000E940A01882369F38CEC0E94C6008EEB41
:1002B0000E94C6008E010F5F1F4F7E01EAE0EE0E26
:1002C000F11C0E94F800F80181938F01EE15FF05E3
:1002D000C1F70E940A018823A1F28CEC0E94C6009B
:1002E0008EE40E94C6008B810E94C6008C810E9411
:1002F000C6008FE70E94C6008FE891E00197F1F7F2
:1003000000C000000E940A01882309F4BACF8CECD7
:100310000E94C60088E40E94C6009FEFE9EFF0E06B
:100320009150E040F040E1F700C0000081E0AACF2A
:10033000449A0E940A01882331F08CEC0E94C60086
:1003400084E40E94C60044980895CF93DF93EC01A3
:100350000E94E500882301F10E940A018823D1F060
:100360008CEC0E94C6008EEB0E94C6000E94F80032
:1003700088830E94F80089830E94F8000E94F80098
:100380000E94F8000E94F8000E94F8000E94F80005
:100390000E94F80081E001C080E0DF91CF910895D4
:1003A0000F931F93CF93DF938C010E940A01882340
:1003B00079F08CEC0E94C6008EEB0E94C600E8012A
:1003C000075F1F4F0E94F8008993C017D107D1F72C
:1003D000DF91CF911F910F910895CF93DF9300D0BC
:1003E000CDB7DEB70E9478002FEF89E698E1215063
:1003F00080409040E1F700C0000081E00E945E0074
:1004000080E091E00E94BA0060E081E00E9470000C
:1004100081E191E00E94BA002FEF83ED90E321503B
:1004200080409040E1F700C0000081E00E945E0043
:100430000E942601811113C060E00E94700082E2D8
:1004400091E00E94BA002FEF87EA91E621508040A8
:100450009040E1F700C0000081E00E945E007894C7
:100460000E949801F12CE12C29E0522E35E0632EF8
:10047000712C4AE0442E5AE0852E912C63E3C62E5F
:1004800061E0D62E74E1372EE8E4AE2EE1E0BE2E18
:10049000CE0101960E94A501882309F447C02A8154
:1004A000422F50E03981542F4427430F511D549E51
:1004B000C001559E900D1124B3010E949D02469EDD
:1004C0008001479E100D112417FF02C0015F1F4FCE
:1004D00084E0159507958A95E1F7005C1E4FE016BC
:1004E000F10609F1C801B4010E949D029F938F9308
:1004F0007F936F931F923F931F922F93DF92CF9220
:100500001F923F92BF92AF920E94C50260E080E0CE
:100510000E94700088E491E00E94BA000FB6F8943F
:10052000DEBF0FBECDBF0E94980178018FE39CE92A
:100530000197F1F700C00000ABCF97FB072E16F430
:10054000009407D077FD09D00E94B10207FC05D0C6
:100550003EF4909581959F4F0895709561957F4FDA
:100560000895AA1BBB1B51E107C0AA1FBB1FA617FA
:10057000B70710F0A61BB70B881F991F5A95A9F74C
:1005800080959095BC01CD010895AEE0B0E0EBEC14
:10059000F2E00C9481050D891E898F89988D26E0E3
:1005A0002C831A83098397FF02C080E090E80197AB
:1005B0009E838D83AE01455E5F4F698D7A8DCE013E
:1005C00001960E94F5024D815E8157FD0AC02F8180
:1005D0003885421753070CF49A01020F131FF801D4
:1005E00010822E96E4E00C949D05ABE0B0E0EBEFBA
:1005F000F2E00C9473057C013B018A01FC01178237
:100600001682838181FFC8C1CE0101965C01F7018A
:100610009381F30193FD859193FF81913F0188239D
:1006200009F453C1853239F493FD859193FF81918B
:100630003F01853229F4B70190E00E94E504E7CF3D
:10064000912C212C312CFFE1F31538F08B3211F174
:1006500090F4803209F1833229F137FC3CC020ED5F
:10066000280F2A3050F536FE20C08AE0989E200DD3
:100670001124922E06C08D3291F0803371F7689468
:1006800030F8F30193FD859193FF81913F01811132
:10069000DACF21C0689431F8689432F8F2CF6894C8
:1006A00033F8EFCF689434F8ECCFEAE02E9E200DBB
:1006B0001124222E689435F8E4CF8E3229F436FCCA
:1006C00004C1689436F8DDCF8C3619F4689437F895
:1006D000D8CF8836B1F2982F9F7D95549330E0F0B3
:1006E0008336A1F18337C1F1833509F063C0280156
:1006F000F2E04F0E511CF801C080D180692D70E0EE
:1007000036FC02C06FEF7FEFC6010E94CF044C01A0
:10071000689437F882010AC00C5F1F4FFFE3F9832A
:1007200088248394912C6501E89437F833FE2DC01A
:10073000522C8114910471F5552009F468CFB7014A
:1007400080E290E00E94E5045A94F6CFF80180819F
:1007500089830E5F1F4FE4CF2801F2E04F0E511C3A
:10076000F801C080D180692D70E036FC02C06FEFC7
:100770007FEFC6010E94DA044C018201D5CFB70198
:1007800080E290E00E94E5042A942814190409F0FC
:10079000B0F7CECFF60137FC859137FE81916F011E
:1007A000B70190E00E94E50451105A94F1E08F1ACD
:1007B0009108BFCF843619F0893609F077C0F80167
:1007C00037FE6BC060817181828193810C5F1F4F06
:1007D000F32DFF763F2E97FF09C090958095709579
:1007E00061957F4F8F4F9F4F689437F82AE030E034
:1007F000A5010E941505C82ECA188C2C432C36FE64
:100800000CC0E89440F8C91440F434FE05C032FC32
:1008100003C0F32DFE7E4F2E892C44FE95C0FE01B1
:10082000EC0DF11D8081803309F087C0242D297ED5
:10083000422E842D8870582E43FC95C040FE8FC0F8
:100840009C2C821418F42C0C922C981844FE91C005
:10085000B70180E390E00E94E50442FE09C088E70A
:1008600090E041FE02C088E590E0B7010E94E504F7
:10087000C91408F48AC0CA94D12C9FEFC91AD90AA6
:10088000CA0CDB1CF60182916F01B70190E00E9457
:10089000E504AC14BD04B1F74FCF60817181072E20
:1008A000000C880B990B0E5F1F4F92CFD32CE8944E
:1008B000D4F82AE030E0853739F1232D297FD22E74
:1008C0008F3601F148F48835A9F0F70186819781C8
:1008D0002B96E2E10C948F05803749F08837A9F711
:1008E000D4FE02C06894D2F820E130E00DC06894D4
:1008F000D4F8F6CF34FE03C0822F8660D82E20E1D4
:1009000032E002C028E030E0F801D7FE0FC060817D
:100910007181828193810C5F1F4FA5010E94150593
:10092000C82ECA183D2CE89437F867CF60817181D2
:1009300090E080E00E5F1F4FF0CF42FC02C0839436
:1009400078CF8394839475CF842D867809F471CF02
:10095000F6CFB70180E290E00E94E5048394821410
:10096000C0F3512C73CF522C5818821408F46ECF58
:10097000F8CF842D867809F47BCF8BE241FE80E2AC
:1009800047FC8DE2B70190E071CFB70180E390E0C2
:100990000E94E5049A946CCF8FEF9FEF99CFFC01F2
:1009A0000590615070400110D8F7809590958E0F9A
:1009B0009F1F0895FC016150704001900110D8F70D
:1009C000809590958E0F9F1F08950F931F93CF933F
:1009D000DF93182F092FEB018B8181FD09C01FEFD9
:1009E0000FEF812F902FDF91CF911F910F910895DD
:1009F00082FF14C02E813F818C819D812817390789
:100A00003CF4E881F981CF010196998388831083B2
:100A10008E819F8101969F838E83E3CFE885F98540
:100A2000812F0995892BA1F3DACFFA01AA27283063
:100A300051F1203181F1E8946F936E7F6E5F7F4FAB
:100A40008F4F9F4FAF4FB1E03ED0B4E03CD0670F27
:100A5000781F891F9A1FA11D680F791F8A1F911D7A
:100A6000A11D6A0F711D811D911DA11D20D009F4CA
:100A700068943F912AE0269F11243019305D31930C
:100A8000DEF6CF010895462F4770405D4193B3E0F5
:100A90000FD0C9F7F6CF462F4F70405D4A3318F09C
:100AA000495D31FD4052419302D0A9F7EACFB4E04D
:100AB000A6959795879577956795BA95C9F7009705
:100AC0006105710508959B01AC010A2E06945795A6
:100AD000479537952795BA95C9F7620F731F841FFD
:100AE000951FA01D08952F923F924F925F926F9293
:100AF0007F928F929F92AF92BF92CF92DF92EF92AE
:100B0000FF920F931F93CF93DF93CDB7DEB7CA1B2E
:100B1000DB0B0FB6F894DEBF0FBECDBF09942A8859
:100B2000398848885F846E847D848C849B84AA8401
:100B3000B984C884DF80EE80FD800C811B81AA818E
:100B4000B981CE0FD11D0FB6F894DEBF0FBECDBF59
:080B5000ED010895F894FFCFB8
:100B5800202020555343204545313039202020207E
:100B68000020445331384232302054657374657222
:100B780020004E6F204453313842323020666F7562
:100B88006E6400543D307825303278253032783D17
:080B98002533642E25642000C2
:00000001FF
